S02B00002F686F6D652F636F6C657474652F776F726B2F5747325F4E65775265706F2F5747325F503032303855
S3158001B00000001880E1F0018071F1018075F1018005
S3158001B0106DF101806DF101806DF10180000000000C
S3158001B02000000000000000000000000001EB03802A
S3158001B0306DF1018000000000A1EB038005EC038027
S3158001B04089F101808DF1018091F1018095F1018075
S3158001B05099F101809DF10180A1F10180A5F1018025
S3158001B060A9F10180ADF10180B1F10180B5F10180D5
S3158001B070B9F10180BDF10180C1F10180C5F1018085
S3158001B080C9F101806DF101806DF101806DF1018061
S3158001B090CDF10180D1F10180D5F10180D9F1018015
S3158001B0A0DDF10180E1F10180E5F10180E9F10180C5
S3158001B0B0EDF10180F1F10180F5F10180F9F1018075
S3158001B0C0FDF1018001F2018005F2018009F2018022
S3158001B0D00DF2018011F201806DF101806DF1018027
S3158001B0E06DF101806DF101806DF101806DF101805D
S3158001B0F06DF101806DF101806DF101806DF101804D
S3158001B1006DF101806DF101806DF101806DF101803C
S3158001B1106DF101806DF101806DF101806DF101802C
S3158001B12015F2018019F201801DF2018021F2018060
S3158001B13025F201806DF101806DF101806DF1018053
S3158001B1406DF101806DF101806DF101806DF10180FC
S3158001B1506DF101806DF101806DF101806DF10180EC
S3158001B1606DF101806DF101806DF101806DF10180DC
S3158001B1706DF101806DF101806DF101806DF10180CC
S3158001B1806DF10180696205806DF10180BD62058086
S3158001B1906DF10180796205806DF101806DF101802B
S3158001B1A06DF101806DF1018029F201802DF201801E
S3158001B1B06DF10180359B05806DF101806DF1018016
S3158001B1C06DF101806DF101806DF101806DF101807C
S3158001B1D06DF10180B53305806DF101806DF10180DE
S3158001B1E06DF101806DF101806DF101806DF101805C
S3158001B1F031F201806DF1018035F2018039F20180F1
S3158001B200A11B0480AD1B04803DF20180ED0202800A
S3158001B2106DF101806DF101806DF101806DF101802B
S3158001B2206DF101806DF101806DF101806DF101801B
S3158001B2306DF101806DF101806DF101806DF101800B
S3158001B2406DF101806DF101806DF101806DF10180FB
S3158001B2506DF101806DF101806DF101806DF10180EB
S3158001B2606DF101806DF101806DF101806DF10180DB
S3158001B2706DF101806DF101806DF101806DF10180CB
S3158001B2806DF101806DF101806DF101806DF10180BB
S3158001B2906DF101806DF101806DF101806DF10180AB
S3158001B2A06DF101806DF101806DF101806DF101809B
S3158001B2B06DF101806DF101806DF1018085F1018073
S3158001B2C06DF101806DF101806DF101806DF101807B
S3158001B2D06DF101806DF101806DF101806DF101806B
S3158001B2E06DF101806DF101806DF101806DF101805B
S3158001B2F06DF101806DF101806DF101806DF101804B
S3158001B3006DF101806DF101806DF101806DF101803A
S3158001B3106DF101806DF101806DF101806DF101802A
S3158001B3206DF101806DF101806DF101806DF101801A
S3158001B3306DF101806DF101806DF101806DF101800A
S3158001B3406DF101806DF101806DF101806DF10180FA
S3158001B3506DF101806DF101806DF101806DF10180EA
S3158001B3606DF101806DF101806DF101806DF10180DA
S3158001B3706DF101806DF101806DF101806DF10180CA
S3158001B3806DF101806DF101806DF101806DF10180BA
S3158001B3906DF101806DF101806DF101806DF10180AA
S3158001B3A06DF101806DF101806DF101806DF101809A
S3158001B3B06DF101806DF101806DF101806DF101808A
S3158001B3C06DF101806DF101806DF101806DF101807A
S3158001B3D06DF101806DF101806DF101806DF101806A
S3158001B3E06DF101806DF101806DF101806DF101805A
S3158001B3F06DF101806DF101806DF10180FFFFFFFF2D
S3158001F00010B5054C237833B9044B13B10448AFF3DB
S3158001F01000800123237010BD0008108000000000CD
S3158001F020C80108800C4B43B10C480D4910B5AFF3AC
S3158001F03000800C48036823B910BD0A48036833B9B8
S3158001F0407047094B002BF7D0BDE810401847064B97
S3158001F050002BF5D0184700BF00000000C8010880CA
S3158001F060040810807405108000000000154B002BE9
S3158001F07008BF134B9D46A3F5803A00218B460F4668
S3158001F0801348144A121A3EF0BDFC0F4B002B00D0D8
S3158001F09098470E4B002B00D0984700200021040092
S3158001F0A00D000D48002802D00C48AFF300803EF0D9
S3158001F0B02DFC200029003DF093F93EF013FC00BFA2
S3158001F0C00000080000001880000000000000000019
S3158001F0D000081080043B158000000000000000003D
S3158001F0E072B61648164901600A6882F3088815487F
S3158001F0F080471549154A164B9A42BEBF51F8040BF3
S3158001F10042F8040BF8E7134A134B9A42BEBF51F8F3
S3158001F110040B42F8040BF8E7104B00209A42BCBF5F
S3158001F12042F8040BFAE70E490E4A00209142BCBF11
S3158001F13041F8040BFAE762B60B48804708ED00E018
S3158001F14000B001804D0E0280F00108800000108021
S3158001F150780510807805108078051080D805108094
S3158001F16000081080043B15806DF00180FFF7FEBF1B
S3158001F17034480047344800473448004734480047FC
S3158001F18034480047344800473448004734480047EC
S3158001F19034480047344800473448004734480047DC
S3158001F1A034480047344800473448004734480047CC
S3158001F1B034480047344800473448004734480047BC
S3158001F1C034480047344800473448004734480047AC
S3158001F1D0344800473448004734480047344800479C
S3158001F1E0344800473448004734480047344800478C
S3158001F1F0344800473448004734480047344800477C
S3158001F200344800473448004734480047344800476B
S3158001F210344800473448004734480047344800475B
S3158001F220344800473448004734480047344800474B
S3158001F230344800473448004734480047344800473B
S3158001F2403448004771F1018075F1018001EB03803B
S3158001F250A1EB038005EC038085F101806DF10180CE
S3158001F2606DF101806DF101806DF101806DF101809B
S3158001F2706DF101806DF101806DF101806DF101808B
S3158001F2806DF101806DF101806DF101806DF101807B
S3158001F2906DF101806DF101806DF101806DF101806B
S3158001F2A011140280291402804114028059140280AB
S3158001F2B07114028089140280A1140280B91402801B
S3158001F2C06DF101806DF101806DF101806DF101803B
S3158001F2D02D2802806128028095280280C928028013
S3158001F2E06DF101806DF101806DF101806DF101801B
S3158001F2F06DF101806DF101806DF101806DF101800B
S3158001F3006DF10180892502806DF101806DF10180A9
S3158001F310010302806DF1018010F8012B11F8013B88
S3158001F320012A28BF9A42F7D0D01A7047034613F8AC
S3158001F330012B002AFBD1181A013870470000000002
S3158001F34001F0FF01102A2BDB10F0070F08D010F80F
S3158001F350013B013A8B422DD010F0070F42B3F6D113
S3158001F360F0B441EA012141EA014122F007047FF02C
S3158001F37000070023F0E80256083C85EA010586EA83
S3158001F380010685FA47F5A3FA87F586FA47F6A5FABF
S3158001F39087F68EB9EED1F0BC01F0FF0102F00702CB
S3158001F3A032B110F8013B013A83EA010313B1F8D176
S3158001F3B00020704701387047002D06BF3546033857
S3158001F3C0073815F0010F07D1013015F4807F02BF90
S3158001F3D0013015F4C03F0130F0BC0138704700BFE1
S3158001F3E07BB972B90029BEBF00204FF0004106E00B
S3158001F3F008BF00281CBF6FF000414FF0FF3000F0BE
S3158001F400C5B9ADF1080C6DE904CE002909DB002BE5
S3158001F4101ADB00F04DF8DDF804E0DDE9022304B0E3
S3158001F4207047404261EB4101002B1BDB00F040F845
S3158001F430DDF804E0DDE9022304B0404261EB4101DD
S3158001F440524263EB43037047524263EB430300F03E
S3158001F4502FF8DDF804E0DDE9022304B0404261EBD8
S3158001F46041017047524263EB430300F021F8DDF816
S3158001F47004E0DDE9022304B0524263EB43037047A3
S3158001F48053B94AB9002908BF00281CBF4FF0FF3184
S3158001F4904FF0FF3000F07AB9ADF1080C6DE904CE7A
S3158001F4A000F006F8DDF804E0DDE9022304B07047D8
S3158001F4B02DE9F0478C460D460446089E002B51D116
S3158001F4C08A4217466DD9B2FA82FEBEF1000F0BD081
S3158001F4D0CEF1200C01FA0EF520FA0CFC02FA0EF799
S3158001F4E04CEA050C00FA0EF44FEA174A250CBCFBD0
S3158001F4F0FAF81FFA87F90AFB18CC45EA0C4508FB8E
S3158001F50009F3AB420AD9ED1908F1FF3280F0238164
S3158001F510AB4240F22081A8F102083D44ED1AA4B223
S3158001F520B5FBFAF00AFB105544EA054400FB09F9DC
S3158001F530A14509D9E41900F1FF3380F00A81A1457B
S3158001F54040F2078102383C44A4EB090440EA0840B2
S3158001F5500021002E61D024FA0EF4002334607360FA
S3158001F560BDE8F0878B4207D9002E54D0002186E86A
S3158001F57021000846BDE8F087B3FA83F1002940F0FF
S3158001F5808E80AB4202D3824200F2FA80841A65EB06
S3158001F59003050120AC46002E3FD086E81010BDE859
S3158001F5A0F08712B90127B7FBF2F7B7FA87FEBEF1EA
S3158001F5B0000F34D1EB1B3A0C1FFA87FC0121B3FBF8
S3158001F5C0F2F8250C02FB183345EA03450CFB08F3D8
S3158001F5D0AB4207D9ED1908F1FF3002D2AB4200F2F6
S3158001F5E0D1808046ED1AA3B2B5FBF2F002FB10552D
S3158001F5F043EA05440CFB00FCA44507D9E41900F154
S3158001F600FF3302D2A44500F2B8801846A4EB0C045D
S3158001F61040EA08409DE731463046BDE8F087CEF1A5
S3158001F620200405FA0EF307FA0EF720FA04F83A0CCD
S3158001F63025FA04F448EA0308B4FBF2F14FEA1845C7
S3158001F64002FB11441FFA87FC45EA044501FB0CF3D2
S3158001F650AB4200FA0EF409D9ED1901F1FF3080F0C1
S3158001F6608A80AB4240F2878002393D44EB1A1FFA09
S3158001F67088F5B3FBF2F002FB103345EA034500FB44
S3158001F6800CF3AB4207D9ED1900F1FF386FD2AB42CB
S3158001F6906DD902383D44EB1A40EA01418FE7C1F149
S3158001F6A0200722FA07F88B4005FA01F448EA03039A
S3158001F6B020FA07FE4FEA134CFD404EEA040EB5FBD5
S3158001F6C0FCF94FEA1E440CFB19551FFA83F844EAEC
S3158001F6D0054509FB08F4AC4202FA01F200FA01FA87
S3158001F6E008D9ED1809F1FF3043D2AC4241D9A9F1CD
S3158001F6F002091D442D1B1FFA8EFEB5FBFCF00CFB87
S3158001F70010554EEA054400FB08F8A04507D9E418D0
S3158001F71000F1FF3529D2A04527D902381C4440EA99
S3158001F7200940A4EB0804A0FB02894C45C6464D4618
S3158001F73015D312D056B1BAEB0E0364EB050404FA65
S3158001F74007F7CB401F43CC40376074600021BDE88A
S3158001F750F0871846F8E69046E0E6C245EAD2B8EB6D
S3158001F760020E69EB03050138E4E72846D7E74046F0
S3158001F77091E78146BEE7014678E702383C4445E792
S3158001F780084608E7A8F102083D442BE7704700BF09
S3158001F79008B5034A4421034B034802F0B3FA00BF7C
S3158001F7A0EEFD058090FC0580B2FC0580020A00F022
S3158001F7B01F00062A38B506D9094B4FF45671094AF6
S3158001F7C0094802F09FFA094D032455F822308440F6
S3158001F7D001FA00F023EA0403034345F8223038BDD9
S3158001F7E056FD0580DCFD058061FD058068C00F4002
S3158001F7F038B505460C4649B180B1294B98424DD062
S3158001F80003F58043984207D1022308E0254B4B211B
S3158001F810254A264802F076FAFFF7BAFF0346244ABC
S3158001F820032132F91300FFF7C1FF6A6C237A02F4D0
S3158001F830604203F003031343A279D20202F4C05259
S3158001F8401343E279120202F440721343627A52013F
S3158001F85002F060021A43A37A9B0003F00C03134360
S3158001F86022780AB143F4803322790AB143F0100336
S3158001F870E2780AB143F08003A2780AB143F4806347
S3158001F8806B646278AB6C23F041030AB143F04003A9
S3158001F89062790AB143F00103AB6438BD0123BEE747
S3158001F8A000400C402BFD0580FEFD0580B2FC0580E5
S3158001F8B032FE058008B528B90A4B7C210A4A0B48D5
S3158001F8C002F020FA0123032243710023027203709E
S3158001F8D043708370C37003718371C3714372022352
S3158001F8E0837208BD2BFD058007FE0580B2FC05806D
S3158001F8F008B52AB90A4B8D210A4A0B4802F002FA49
S3158001F900072903D9094B8E21064AF6E7136812792E
S3158001F91003F01F030AB143F0800340F8213008BD8C
S3158001F9202BFD05801CFE0580B2FC05803AFD058015
S3158001F930426C034612F4005204D0426C22F4005207
S3158001F940426401220221D964996C41F08001996453
S3158001F950986C10F0800010D1196A11F0010FD96CE2
S3158001F96008BF012011F0020F596A18BF01201AB190
S3158001F9705A6C42F400525A647047D96C8907E7D5AC
S3158001F9800120E9E7F8B505460C4699B90B4B40F6D7
S3158001F99022210B4A0B4802F0B5F9E6696F6026B160
S3158001F9A0236A012221462846B0476B6813F0406FCF
S3158001F9B0F3D1F8BD4FF04067F7E700BF42FF0580FE
S3158001F9C03400068049FF0580F8B505460C4699B98D
S3158001F9D00B4B40F657210B4A0B4802F093F9E66927
S3158001F9E06F6026B1236A002221462846B0476B689C
S3158001F9F013F0407FF3D1F8BD4FF04077F7E700BFB2
S3158001FA0042FF05804C00068049FF058070B531B9FB
S3158001FA10134B40F67C21134A134802F073F944686C
S3158001FA2014F4003FCC690DD04FF400354560456A2A
S3158001FA3025F00C0545628CB10B6A0322A446BDE80C
S3158001FA4070406047456825F01F4525F40005AD0CDB
S3158001FA50AD04456014B10B6A0222EFE770BD00BFA9
S3158001FA6042FF05806300068049FF058008B531B9EC
S3158001FA700E4B40F2FA410E4A0E4802F043F94B68AA
S3158001FA805A8802F400525A805A886FEA42426FEAD3
S3158001FA90524292B25A805A8892044CBF0B680833FC
S3158001FAA04B604FF08073036108BD00BF42FF058044
S3158001FAB00E00068049FF058008B5064B984206D0A0
S3158001FAC0054B4FF4A271054A054802F01BF9002047
S3158001FAD008BD00BF00802D4036FE05807800068077
S3158001FAE049FF058010B5044630B90A4B4FF4A6711B
S3158001FAF0094A0A4802F006F9202200213DF082FFD8
S3158001FB000123A372E3722373237740F2EE53238199
S3158001FB1010BD00BF33FD05808900068049FF058041
S3158001FB2008B530B9044B40F29511044A044802F0F5
S3158001FB30E9F8C161026208BD42FF0580A90006801D
S3158001FB4049FF05804B780A781B0443EA0263CA7829
S3158001FB5013438A7843EA0223C0F8E4300A794B7961
S3158001FB6043EA02231B04C0F8E830704710B531B967
S3158001FB700F4B4FF469710F4A0F4802F0C3F80F4CCF
S3158001FB80002AB4FBF1F404F1090314BF8022002298
S3158001FB90B3FBF4F30A4C013BB1FBF4F11B024900C0
S3158001FBA003F4E06301F07E010B431343436410BD0C
S3158001FBB036FF0580DFFF058049FF058000CA9A3B35
S3158001FBC0404B4C002DE9F74F044615461E468A46A2
S3158001FBD031B9B54B4FF4B471B44AB54802F092F8D5
S3158001FBE022B9B44B40F26911B04AF6E723B9B24B58
S3158001FBF04FF4B571AD4AF0E70C9B23B9AF4B40F298
S3158001FC006B11AA4AE9E7137F012B04D9AC4B4FF458
S3158001FC10B671A64AE1E7FFF74FFFAA4A4FF4806B18
S3158001FC20136843F440631360636A43F001036362BC
S3158001FC3095F81CE0CEEBCE0306EB830300933346A7
S3158001FC40009A9A4240F029811C2206F11C034FF04A
S3158001FC50000B4FF400490EFB0222B2180192019A61
S3158001FC60934240F065812B68676A9805298906D594
S3158001FC7040F2F25240F2EE50814298BF114613F0A3
S3158001FC80020F0CBF4FF0000B4FF0804B13F00100B9
S3158001FC9015BF4FF0200E86464FF4004C844613F074
S3158001FCA0040F0CBF00224FF4805213F0080F00920C
S3158001FCB0854A0CBF4FF000094FF0100913F0800FF1
S3158001FCC002EA014200990CBF4FF000084FF0080884
S3158001FCD042EA0B0242EA0C0242EA0E0295F80AE077
S3158001FCE00A43BEF1010FE97A42EA090242EA0802B1
S3158001FCF014BF42F4804242F4824242F0040209B9BE
S3158001FD0042F40072297B09B942F0020213F4807F22
S3158001FD1006D0BEF1010F1CBF22F0020242F00102A1
S3158001FD20C4F884200029D4F8C4200CBF4FF0000EFB
S3158001FD304FF0040E22F4827213F0100F42EA0E0283
S3158001FD400CBF00214FF480710A43C4F8C420A97BFB
S3158001FD50C4F8C0116A7BC4F8C42128B1288AC4F8C2
S3158001FD60EC00A87CC4F8940113F0200300F00F8105
S3158001FD702B7D03F03F03C4F84431EB7C11F0180F5F
S3158001FD80C4F8903103D04FF48073C4F8443112F033
S3158001FD90060F02D00023C4F89031336920460C99AE
S3158001FDA0C4F88431F368C4F880317368C4F8883143
S3158001FDB0FFF7C8FE636C13F07E0F06D12A682046D2
S3158001FDC00D99C2F38012FFF7D1FEAA699AB1A36891
S3158001FDD023F0A063A3605388117843F0404343EA3C
S3158001FDE00153C4F8F030D388117943F0404343EA94
S3158001FDF00153C4F800316A6847F48177A3682046C5
S3158001FE001343A3606762FFF757FE2422044600214D
S3158001FE1050463DF0F7FD2B7F012B28BF01238AF841
S3158001FE201830ABB172683388298953438B4240F2CB
S3158001FE30B380F368CAF81020CAF80030CAF80430D3
S3158001FE403369CAF80830CAF80C30B368CAF8143076
S3158001FE501E4B43F824A06B6813F0406F06D01C49F3
S3158001FE601C4A11604FF480211B4AD16013F0407FF8
S3158001FE7006D01A491A4A11604FF48021164AD16078
S3158001FE80184A134206D0184A184B1A604FF480223A
S3158001FE90114BDA6003B0BDE8F08FD3F810C0BCF126
S3158001FEA0000F25D11C33CBE642FF05809F000680DB
S3158001FEB049FF058033FD058085FE058059FE058055
S3158001FEC092FE05806CC00F400000FF3F1C08108029
S3158001FED085F901802808108000E100E0C9F90180D8
S3158001FEE02408108000007C600DFA018020081080B3
S3158001FEF099690029D6D09A68B3F8028001920022C6
S3158001FF0008F1FF3942450CEBC207CBD24FF0000016
S3158001FF10914579602CF83200A7F802B004D178882F
S3158001FF2080B240F400507880019801320144E9E7BB
S3158001FF3053F8188CB8F1FF0F04D81A4B40F20531EB
S3158001FF40194A4AE653F810ECBEF1000F01D11C3371
S3158001FF5085E653F8081C0029F9D033F81CCC0CF13E
S3158001FF60FF320092002262450EEBC207EFD2009863
S3158001FF70796090422EF832B0A7F8029004D1788841
S3158001FF8080B240F40050788001324144EBE74FF46F
S3158001FF908070C4F84401F1E6044B40F2AB11044A87
S3158001FFA01BE600BFBCFE0580C3FF0580EFFE058012
S3158001FFB0BA00068010B5BDF808409204C90544F020
S3158001FFC0804402F4F80201F078611B0744F400349E
S3158001FFD003F0405322430A431A43026410BD92043C
S3158001FFE0C90502F4F8021B0701F0786142F08042EC
S3158001FFF003F0405342F400320A431A4302647047C5
S3158002000038B530B91D4B40F23B411D4A1D4801F0BF
S3158002001079FE446824B91C4B40F23C41184AF5E704
S3158002002021B91A4B40F23D41154AEFE700230B6096
S3158002003063881D041CD42346154D5A88120402D4A3
S315800200401A8892B2BAB15A8892B22A40B2F5006F31
S3158002005007D1588810F037000DD11B889BB20B60F0
S3158002006038BD5A8892044CBF03680833A342E4D150
S3158002007040F6A27038BD4FF47A6038BD42FF0580E3
S31580020080EBFF058049FF058061FE05801B6C0680BB
S315800200900088FFFF2DE9F047074691469A460C46AF
S315800200A031B92E4B40F275412D4A2E4801F02AFE77
S315800200B04E6826B92C4B40F27641294AF5E772B949
S315800200C06368384621465D88FFF7D0FCADB215F4E9
S315800200D000601FD163689E42F2D1BDE8F0874FF07F
S315800200E000087068096900F083FB758815F400655D
S315800200F020D033889BB29A450FD1328809EB08000B
S31580020100716892B2A2EB08023DF057FC214638464E
S31580020110FFF7ACFC0020BDE8F08701252146384672
S31580020120FFF7A4FC66682169706800F061FB002D08
S31580020130DBD001E0C24503D840F6A170BDE8F08766
S31580020140716809EB080022693DF037FC2369214674
S3158002015038469844FFF78AFCE4E700BF42FF0580F1
S31580020160FFFF058049FF058061FE05802DE9F84F76
S31580020170074691461E460D4631B93B4B40F2225107
S315800201803A4A3B4801F0BEFD22B93A4B40F223512E
S31580020190364AF6E740F2EE539E4261D8CC686388CF
S315800201A0180403D540F6A470BDE8F88F4B699E42C9
S315800201B01CD84946606832463DF0FFFBB3B22380C5
S315800201C063889BB243F408436380638860689904BA
S315800201D0314656BFEB68AB680833EB6000F01EFB16
S315800201E04FF0807300207B61BDE8F88F4FF00008E6
S315800201F04FF0807A6388A6EB080B606809EB0801EA
S315800202009A046A6956BFEB68AB6808339345EB601C
S3158002021017D93DF0D2FB6B699AB2984422806288E4
S3158002022022F400621204120C628063889BB243F449
S3158002023000436380EC68C7F814A063881B04D9D591
S31580020240B0E75A461FFA8BFB3DF0B7FB6969A4F803
S3158002025000B063889BB243F4084363806068BDE75D
S3158002026040F6A370BDE8F88F42FF05802500068020
S3158002027049FF0580157A068070B546680446FFF701
S315800202801BFC054616F0406F06D0134B134A1B68BB
S3158002029052F820102046984716F0407F06D0104B21
S315800202A020460E4A1B6852F82510984716F4C03F1E
S315800202B005D00A4B204653F8251000239847094B50
S315800202C01E4208D0084B2046044A1B6852F8251065
S315800202D0BDE87040184770BD280810801C08108041
S315800202E02408108000007C6020081080024B03489E
S315800202F019680023184700BF1C08108000802D4013
S315800203000148FFF7B9BF00BF00802D4010B50AB380
S3158002031092E81800A3421DD901391A1B082900F256
S31580020320CF80DFE801F00519334D657D95ADBE00BE
S31580020330B2F5803F80F0C480B3F5803F80F0C08004
S31580020340016A090C09040B430362036A9BB243EAFE
S3158002035002420262002010BDB2F5004F80F0B080EA
S31580020360B3F5004F80F0AC80416A21F4FF4121F061
S315800203707F010B434362534B416A03EA024221F0F7
S31580020380FF4323F4FE031A434262E3E7B2F5804F4A
S3158002039080F09680B3F5804F80F09280816A21F456
S315800203A07F5121F03F010B438362474B816A03EA07
S315800203B0024221F07F5323F47C131A438262C9E7F7
S315800203C0B2F5005F7CD2B3F5005F79D2C16A21F4BF
S315800203D0FF5121F01F010B43C3623C4BC16A03EA02
S315800203E0024221F0FF5323F4F8131A43C262B1E7A3
S315800203F0B2F5805F64D2B3F5805F61D2016B21F47E
S315800204007F6121F00F010B430363314B016B03EADA
S31580020410024221F07F6323F470231A43026399E731
S31580020420B2F5006F4CD2B3F5006F49D2416B21F41D
S31580020430FF6121F007010B434363264B416B03EABD
S31580020440024221F0FF6323F4E0231A43426381E7E9
S31580020450B2F5006F34D2B3F5006F31D2816B21F4DD
S31580020460FF6121F007010B4383631A4B816B03EA19
S31580020470024221F0FF6323F4E0231A43826369E791
S31580020480B2F5803F1CD2B3F1807F19D2C16801F0E8
S315800204907F410B43C36083681B0C1B041A43826033
S315800204A058E70D4A94420BD8934209D8C2690B4940
S315800204B00A401343C36183690B402343836149E73F
S315800204C0042010BD0000FF7F0000FF3F0000FF1FD9
S315800204D00000FF0F0000FF07FFFF3F000000C0FF84
S315800204E008B5064B984206D0054B40F2CE41054AE6
S315800204F0054801F007FC002008BD00BF00C00C4083
S31580020500DD000680CC0006800001068000283AD0F5
S315800205104FF4486101220023818040F6C411C270E3
S31580020520C1803F218272018122218263C1724FF48E
S31580020530AD61026446F62012C16040F25C414264BB
S3158002054045F67D72016140F2951182644FF4C8428C
S315800205504161E321C2644FF4C8628161DC21037088
S31580020560C1616221437001627D21837041622521CE
S31580020570026581624B21C1620B2101632F21416396
S31580020580C1631846704704207047000038B50D468F
S31580020590044608B9042038BD0029FBD0FFF7A0FF26
S315800205A0554A136843F440531360236823F488330F
S315800205B043F480332360236823F4825343F0400359
S315800205C02360AB7A5A1E0E2AE4D862681B04012184
S315800205D0204622F4702203F47023134305F10C02A1
S315800205E06360FFF793FE002840F0858005F11402D0
S315800205F002212046FFF78AFE00287CD105F11C02E3
S3158002060003212046FFF782FE002874D105F12402D9
S3158002061004212046FFF77AFE00286CD105F12C02D0
S3158002062005212046FFF772FE002864D105F13402C7
S3158002063006212046FFF76AFE00285CD105F13C02BE
S3158002064007212046FFF762FE002854D105F14402B5
S3158002065008212046FFF75AFE00284CD105F14C02AC
S3158002066009212046FFF752FE002844D16B78226882
S31580020670DB0122F48452DBB213432360AB78226817
S315800206809B0022F4805203F00C0322F00C021343E7
S3158002069023602268EB7822F4805203F0030322F06F
S315800206A003021343AA88236023699BB243EA024367
S315800206B0EA88236123691B0C1B0413432361626945
S315800206C02B8922F47F72C3F3090322F003021343B8
S315800206D063616368EA7A23F0FF03134363602368E6
S315800206E023F4883323602B782BB1D4F8A03043F0DF
S315800206F00203C4F8A03038BD80C00F40F7B5002889
S315800207003AD0002938D0002A36D0002301AE0468B8
S31580020710670502D40468E50411D50468E40411D59A
S3158002072002681C4642F480520260012204F00F04E1
S315800207300F2C01D0C36F036C104603B0F0BD1C466C
S315800207402346E4E75C1C03F00F0303F110050F2B2D
S3158002075050F8255000D1036C042A01954FF000030E
S31580020760154628BF04259F5DCF5401339D42FAD199
S31580020770521B2944E4D1D9E70422DDE70122002372
S31580020780027082700F224370C2700371704700003C
S31580020790144A136843F440631360134B4A78036028
S315800207A04FF0425392050360FF2302F48002836175
S315800207B0C0F82831C0F86831C0F8A831C0F8E831ED
S315800207C00B78DB0503F4000313430A7913438A7813
S315800207D0520502F4001213430360CB780362034B83
S315800207E00365704768C00F40000080F02C081080B7
S315800207F0014420F01F00081ABFF34F8F064A0028D3
S31580020800A1EB000304DCBFF34F8FBFF36F8F7047FA
S31580020810C2F85C322038F2E700ED00E0014420F0B5
S315800208201F00081ABFF34F8F064A0028A1EB000368
S3158002083004DCBFF34F8FBFF36F8F7047C2F8683205
S315800208402038F2E700ED00E0044BD3F87032DB0685
S315800208505ABF034B18680348704700BF00800D409B
S315800208600009108000366E010368054A03F07F0393
S3158002087043F4005313601368002BFCDA704700BF01
S3158002088000800D400378054A03F0010343F40053C8
S315800208901363136B002BFCDA704700BF00800D4098
S315800208A00378054A03F0030343F441531361136942
S315800208B0002BFCDA704700BF00800D400022014BFE
S315800208C01A62704700800D404FF48052014B1A67BE
S315800208D0704700BF00800D404FF48052014BC3F831
S315800208E0A020704700800D400379C2789B0002F0F9
S315800208F0030203F00C03134302780AB143F4005354
S3158002090042780AB143F4801382780AB143F4001321
S31580020910034AC2F8E030D2F8E030002BFBDA7047A7
S3158002092000800D404FF48052014BC3F8E02070479F
S3158002093000800D4030B5514B85B0044604AD0FCBD7
S3158002094005E90F00082C06D8DFE804F00811242FE9
S31580020950567E89969100002005B030BDFFF774FF60
S31580020960474B1B6803F07F0358434008F4E7444D26
S31580020970FFF76AFF04460023286D2A6EA4FB000156
S31580020980FEF77EFD2B6BDB074CBF162314235C43DD
S315800209902044E1E7FFF758FF394B1B6913F0030F39
S315800209A014BF162314235843D6E7354DFFF74CFF61
S315800209B000232C6FD5F8801004F07F04D5F89020A0
S315800209C04443A0FB0101FEF75BFD2B6F204413F429
S315800209D0C0130DD0B3F5002F0CD0D5F87031294A4B
S315800209E01340B3F5004FC0D09342B5D18008B3E728
S315800209F08008F2E74008F0E7214DFFF725FF002344
S31580020A00D5F8A040D5F8B01004F07F04D5F8C02000
S31580020A104443A0FB0101FEF733FDD5F8A030204404
S31580020A2013F4C0130CD0B3F5002F0BD0D5F8703168
S31580020A3003F04043B3F1804F97D0B3F1404FD4E7F0
S31580020A408008F3E74008F1E70D4B04AAD3F8E030BB
S31580020A5003F0030302EB830353F8100C7CE7084B85
S31580020A6004AAD3F8E03003F00C031344F4E7FFF74B
S31580020A70EBFE034B1B6A91E703486DE7D4FB0580C7
S31580020A8000800D400080800040787D01044BC100CB
S31580020A908020D3F8002188401043C3F800017047B4
S31580020AA000800D4010B504460120FFF743FF032C5A
S31580020AB01FD8DFE804F0020C12180F4BD3F800316E
S31580020AC003F03F03B0FBF3F01223584310BD0A4BE9
S31580020AD0D3F80031C3F30523F4E7074BD3F800318B
S31580020AE0C3F30543EEE7044BD3F80031C3F3056342
S31580020AF0E8E70020E8E700BF00800D4038B51E4CCD
S31580020B006069254610F0007015D0A36913F440532E
S31580020B1004D0B3F5805F0BD0002002E00220FFF7FD
S31580020B2009FF6B69C3F3C2630133B0FBF3F038BDCF
S31580020B30FFF78AFEF5E7A36903F44023B3F5802F16
S31580020B4014D002D86BB1002038BDB3F5002F0ED079
S31580020B50B3F5402FF7D1FFF7EDFE236903F00703C4
S31580020B60E2E70120BDE83840FFF7E4BE0220BDE897
S31580020B703840FFF797BF00BF00C00F4010B504464C
S31580020B800220FFF7D7FE032C1FD8DFE804F0020C01
S31580020B9012180F4BD3F8F03003F03F03B0FBF3F09B
S31580020BA01223584310BD0A4BD3F8F030C3F3052302
S31580020BB0F4E7074BD3F8F030C3F30543EEE7044B73
S31580020BC0D3F8F030C3F30563E8E70020E8E700BF17
S31580020BD000800D4010B516280DD8DFE800F00E0E05
S31580020BE0182D3A693E43454A4C4E505254595B5DE4
S31580020BF05F6163656700002010BDFFF77FFF2E4BA4
S31580020C005B69C3F382230133B0FBF3F010BD2A4C38
S31580020C1063695A060DD563691B0606D50120FFF75F
S31580020C20ADFF6369C3F30243EDE70220FFF73AFFA4
S31580020C30F7E7FFF763FFF4E7FFF760FF1E4A5369A2
S31580020C40C3F382230133B0FBF3F05369C3F3012369
S31580020C50D9E7BDE81040FFF7F7BD0020BDE8104098
S31580020C60FFF768BE0220F9E70020BDE81040FFF7D3
S31580020C7085BF0120F9E70220F7E70320F5E7082080
S31580020C80ECE70120EAE70020BDE81040FFF70ABF43
S31580020C900120F9E70220F7E70320F5E70520DDE7E3
S31580020CA00620DBE70720D9E70320D7E70420D5E72C
S31580020CB04FF4004010BD00BF00C00F40154A82B0FD
S31580020CC0D2F8803043F00303C2F8803002F5F21284
S31580020CD0D2F8403143F00203C2F8403100230E4A73
S31580020CE00193019B93420FD90C4A0120D2F82031FD
S31580020CF023F4F85323F0010343F4B85343F001037A
S31580020D00C2F8203102B0704700BF019B01330193C4
S31580020D10E7E700BF00C00F407F1A060000800D4043
S31580020D2007B5002102A800F8041DFFF7B9FD094B9B
S31580020D3001201A6B22F000421A631A6B22F080425B
S31580020D401A6319601A6B42F4C6121A6303B05DF80D
S31580020D5004FB00BF00900D404B0403D5036843F4A7
S31580020D60804303607047000008B528B90B4B2F21DA
S31580020D700B4A0C4800F0C6FF0023012283700371E0
S31580020D80437183710372437243814FF6FF7302701C
S31580020D904270C270C271838108BD00BF33FD058077
S31580020DA0F60106807A01068010B529B9234B4121C6
S31580020DB0234A244800F0A6FF0B790A7843F40053AD
S31580020DC043EAC2134A7A43EAC2334A78120202F4E7
S31580020DD0407213430A7A920102F040021343CA799F
S31580020DE0520102F0200213434A79920002F0040271
S31580020DF01343CA78520002F0020213438A7812031E
S31580020E0002F4805213438A79D20002F01802134305
S31580020E10EFF3108272B60468A40409D50A4C4460C2
S31580020E204C898989C4608160036082F3108810BD11
S31580020E304CF2205444604DF62814F0E733FD0580C9
S31580020E400E0206807A01068020C528D9364AD2F853
S31580020E50883043F47003F0B5C2F88830334A138879
S31580020E60580705D5138823F004031B041B0C138033
S31580020E702F4A1388590705D5138823F004031B04C8
S31580020E801B0C13802B4A2C4B53604FF6FF739360D7
S31580020E90136823F0A00343F020031360274B1A68DC
S31580020EA0D20703D51A6822F001021A60BFF34F8F68
S31580020EB0BFF36F8F1C4B0021C3F85012BFF34F8FC5
S31580020EC0BFF36F8F5A6942F400325A61BFF34F8F74
S31580020ED0BFF36F8FC3F88410BFF34F8FD3F8802090
S31580020EE043F6E076C2F3C904C2F34E32A507520135
S31580020EF002EA060E284621464EEA0007013900F12B
S31580020F004040C3F860724F1CF6D1203A12F1200F8E
S31580020F10EED1BFF34F8F5A6942F480325A61BFF3E2
S31580020F204F8FBFF36F8FF0BD00ED00E000800B4066
S31580020F3000000D4000C00B4020C528D910E000E01B
S31580020F402DE9F041324E736913F0007323D0B369F1
S31580020F5013F4405316D0B3F5805F2E4818BF002095
S31580020F602B4B5B69C3F3C2630133B0FBF3F0284BAF
S31580020F705B69C3F382230133B0FBF3F0264B18601F
S31580020F80BDE8F081254B26481B6913F0030F254BDC
S31580020F9008BF1846E4E7214D21482F682A6B1D4C6D
S31580020FA012F0010F1F4A18BF8046286D08BF90466F
S31580020FB02A6EA0FB0401FEF763FAB269404402F48A
S31580020FC04022B2F5802F15D003D8002ACFD0002038
S31580020FD0CDE7B2F5002F16D0B2F5402FF7D107F044
S31580020FE07F0032696043430802F007000130B3FB99
S31580020FF0F0F0BCE7D5F80031C3F30543B0FBF3F05C
S3158002100012235843B3E7D5F8003103F03F03F5E7DF
S3158002101000C00F4000366E010000108000800D4037
S3158002102000A4781F00389C1C020A00F01F00062AC2
S3158002103038B506D9094B4FF45671094A094800F06A
S3158002104061FE094D032455F82230844001FA00F0EE
S3158002105023EA0403034345F8223038BD56FD058052
S315800210604E03068061FD058068C00F4008B5084AB8
S31580021070002352F82310814208D00133092BF8D17C
S31580021080044B8C21044A054800F03CFE184608BDF4
S31580021090C00306801A02068060030680D20206809A
S315800210A02DE9F04704460D4629B96F4BE3216F4A75
S315800210B06F4800F027FE0B681BB96E4BE4216B4A22
S315800210C0F6E7097A042903D96B4BE621674AEFE7EB
S315800210D0697A042903D9694BE721644AE8E700263D
S315800210E04FEA830998464FF0040E3746B2FBF9F170
S315800210F089B29944002908BF012101F1010A0EFB38
S3158002110001F00EFB0AFCB2FBF0F0B2FBFCFCC01A4B
S31580021110A3EB0C0C604584BF60461FFA8AF14045FA
S3158002112098BF76460EF1010E9CBF80460F46BEF1F1
S31580021130210FDBD16422B3FBF2F303EB4303984521
S3158002114000F28E802046C7F30C07FFF78FFF4C4BC9
S31580021150032133F91000FFF767FFA368321F013EB0
S3158002116043F002032979032A4FEA0666A360A3683D
S3158002117006F0F85623F00203A360236998BF43F46E
S31580021180003323F01F2323F0FF0333433B432361C2
S31580021190236923F000532361A269EB7B22F4E26286
S315800211A01B0222F0070203F4E0630A431A43AB7B75
S315800211B09B0003F0040313436A79012A4BD1002969
S315800211C046D023F40063A361EB7922695B0322F4A0
S315800211D0005203F40053134323616A7A2B7A43EA5B
S315800211E002432A7BE3625201A36A02F0200243F0A1
S315800211F08803A362A36A43F44043A3626B7B616A5A
S315800212001B0103F0100313430B436362AB7A1BB1DA
S31580021210636A43F008036362EB7A1BB1636A43F045
S3158002122001036362A979174A174B002908BF13463F
S31580021230626913432A7C6361A3690AB143F400237A
S315800212406A7C0AB143F48023A3610020BDE8F0875B
S3158002125043F40063B7E70029B5D043F01003B2E741
S3158002126040F22150BDE8F08733FD05807303068086
S31580021270D20206803F0206805402068093020680CE
S31580021280E403068000C01FC000C01FE008B530B965
S315800212900C4B40F2E1110C4A0C4800F033FD4FF43E
S315800212A0E13303600023037143718371C371037257
S315800212B043728372C372437303738373C3730374F8
S315800212C0437408BD33FD05807F030680D202068003
S315800212D04269836A1B0C03F0C30343EA0200704728
S315800212E0826A0B0422F4403203F44033134301F042
S315800212F0004210B58362436923F0404323F4F81316
S315800213001343084A0A40134301F4404223F44043FC
S3158002131013434361FFF7DCFF014240F21A5008BFD4
S31580021320002010BD00001F4008B519B10A44914241
S3158002133007D108BD064B4FF42A71064A064800F0CB
S31580021340E1FC43691B02FCD511F8013BC361EEE760
S31580021350157A068097030680D202068070B5054606
S31580021360144631B9274B40F2B721274A274800F065
S31580021370C9FC866933050CD426F4FD6626F005067B
S315800213803605360DB01E46424641013174BB2046B3
S3158002139070BD0126F9E72846FFF79AFF020307D5B3
S315800213A04FF400212846FFF79BFF40F21D5070BD87
S315800213B0430307D54FF480212846FFF791FF40F279
S315800213C01E5070BD820307D54FF400312846FFF7C1
S315800213D087FF40F21F5070BDC30307D54FF480319B
S315800213E02846FFF77DFF4FF4A46070BDEB6A13F0C9
S315800213F0E06FD0D0EB690EB103F07F0301F8013CB8
S31580021400013CC2E7157A0680AC030680D2020680CA
S31580021410024B034A1B685168024818472809108004
S315800214200409108000401840024B034A1B689168E9
S315800214300248184728091080040910800080184045
S31580021440024B034A1B68D168024818472809108054
S315800214500409108000C01840024B034A1B681169B8
S315800214600248184728091080040910800000194094
S31580021470024B034A1B6851690248184728091080A3
S315800214800409108000401940024B034A1B68916987
S3158002149002481847280910800409108000801940E4
S315800214A0024B034A1B68D1690248184728091080F3
S315800214B00409108000C01940024B034A1B68116A56
S315800214C002481847280910800409108000001A4033
S315800214D070B50E4686B0154628B9104BEC21104AD7
S315800214E0104800F00FFC03790F4C0268022B23711F
S315800214F0226011D101A8FFF7C9FE2A4601A92068F8
S315800215000196FFF7CDFD23689A6942F400229A611B
S315800215109A6942F480229A6106B070BDF60306800B
S315800215207E040680010406802C0910800A4B10B5C1
S315800215301C79022C0ED132B10A4601461868FFF791
S31580021540F3FE002010BD0A4601461868BDE8104029
S31580021550FFF704BF012010BD2C09108013B5144675
S3158002156000901A468DF80410684600232146FFF73C
S31580021570AFFF002002B010BD10B50C4621B120B1DC
S315800215800122FFF7D3FF00B10024204610BD0000E0
S3158002159008B530B9054B40F23B11054A054800F0C3
S315800215A0B1FBBDE80840FFF7E7BF00BF86040680AF
S315800215B01C05068092040680F8B50F46054638B1AA
S315800215C00024BC420BD314D100232B552046F8BDF0
S315800215D0104B4FF4B071104A104800F093FB2E194D
S315800215E0002201213046FFF7A1FF30B14FF0FF34D0
S315800215F0ECE7254400236B70E8E72B5D0D2B01D0C9
S315800216000A2B04D1002CF4D134704FF0FF3401340C
S31580021610D7E700BF860406802505068092040680E9
S3158002162008B530B9084B4FF4C971084A084800F02A
S3158002163069FB00220121FFF779FF002814BF4FF0D2
S31580021640FF30012008BD00BF1105068032050680E5
S31580021650920406802DE9F04F002497B0934699466E
S315800216608A460C940A9002940A9B93F900201AB92E
S315800216700C9817B0BDE8F08F252A1ED100250A9B4B
S3158002168093F90120591C2B2A20D028DC202A20D02D
S31580021690232A21D0002256460A20019293F901106C
S315800216A05A1CA1F13007092F20D8019B00FB031198
S315800216B0A1F1300301931346F0E701230CA95846A2
S315800216C0C8476AE245F001050B46D9E745F00205AF
S315800216D0FAE745F00405F7E745F01005F4E72D2A09
S315800216E0F0D0302AD6D145F00805EDE72A2940F018
S315800216F07382336804360193DDE72A2905D1376878
S3158002170004367CE200220627049293F901105A1CC1
S31580021710682900F0F9806C2900F0028193F9018032
S315800217205A1CB8F1640F0A9215D028F02003462B72
S315800217300DD0582B0BD0A8F16203DBB2132B00F22B
S315800217400582A94A22FA03F3D90740F1FF81B8F14B
S31580021750690F40F03C81EA0540F1ED80073626F0BC
S315800217600706D6E9003406F1080ACDE904340023D7
S315800217708DF83430DDE90434234340F0E4803023AD
S3158002178001248DF835300DAB23440293DDE9042321
S31580021790002A73F1000380F2FE8001342D262F0782
S315800217A040F1048126B1012332460CA95846C84726
S315800217B0019B302258461B1B0DEB0201C847019C38
S315800217C0B8F1580F00F00581B8F1780F40F06481C6
S315800217D00027E90540F1FF800AF1070323F007039A
S315800217E003F1080AD3E90034CDE902340021DDE9A8
S315800217F002348DF8341053EA040140F0F980302324
S3158002180001248DF835300DAB05F010062344029382
S3158002181015F0080300F020817EB13022012358465C
S3158002182001260DEB0201C847002F4FF001030CA9D8
S315800218300CBF782258225846C847019B3022584608
S315800218401B1B0DEB0201C847019CEB0610D57EB926
S3158002185030220123584602340DEB0201C847002F7D
S315800218604FF001030CA90CBF782258225846C8476C
S31580021870A8F16203DBB2132B00F25E815B4A22FA85
S3158002188003F3DE0740F15881E80540F107810AF14A
S31580021890070323F0070303F1080AD3E90034CDE9ED
S315800218A00234B8F16F0F00F00281B8F1620F00F0D6
S315800218B00081B8F1700F14BF0A23102300228DF81D
S315800218C03420DDE902120A4340F0F58030230124F8
S315800218D08DF835300DAB29072344029340F12281DE
S315800218E0019B302258461B1B0DEB0201C847019C07
S315800218F0029E029616F90129002A00F0218101230F
S315800219000CA95846C847F4E793F90210682903D010
S3158002191045F04005134601E7023345F02005FDE612
S3158002192093F902106C2902D045F08005F2E7023362
S3158002193045F48075F2E6336806F1040A1946DA1729
S31580021940CDE9041213E70123DDE9046702930A2233
S31580021950002330463946FDF743FD0A2208900023CC
S315800219600B9130463946FDF73BFD002A73F10001A3
S315800219700FDA3020801A024602990DA8089E0B467D
S315800219800B9F42540C460133029356EA0703DED17B
S31580021990F9E63032F0E7AB0702D501342B26FEE6B4
S315800219A015F004061CBF01342026F8E6E80705D4A4
S315800219B0019B20220CA958461B1BC847002E3FF4C8
S315800219C0FFAE012332460CA95846C847F8E6B2460E
S315800219D0F6E60127FDE6DAF8002000240AF1040A79
S315800219E01346CDE9023401E78160080001600800F0
S315800219F05FB34120B0F10A034FF000014FF00106B8
S31580021A000DF1340E41F1FF34CDE90434029B1C09F9
S31580021A10039B44EA037406941C09DDE9022300232E
S31580021A20079402F00F02002B08BF0A2A0FD2303227
S31580021A3006F80E2034460136DDE90623104619469D
S31580021A400143CDE90223E1D1DDE66120D2E7DDE97A
S31580021A50040180180246EBE7EA071BD406B102347A
S31580021A60019B20220CA958461B1BC847002E3FF417
S31580021A70ECAE30220123584601260DEB0201C847FF
S31580021A80002F4FF001030CA90CBF7822582258462A
S31580021A90C847DAE61E46D8E60127E9E6DAF80030D4
S31580021AA000220AF1040A1946CDE90212F9E6082350
S31580021AB004E7022302E7002F2DD04120DFB2002166
S31580021AC0B0F10A034FF000084FF0010641F1FF34EE
S31580021AD0CDE90478CDE90834DDE90423DDE90201A4
S31580021AE0FDF7CEFC80460F46DDE90423DDE90201DF
S31580021AF0FDF7C6FC002B08BF0A2A0ED230320DA98A
S31580021B00CDF80880039734468A550136DDE90223EB
S31580021B101343E1D1DEE66120D0E7DDE908018018D2
S31580021B200246ECE7EA073FF5E3AE019B20220CA9C9
S31580021B3058461B1BC847DBE6029B002B7FF4D8AEB8
S31580021B40EB072AD5019B20221B1BB7E5B8F1630F51
S31580021B5005D106F1040A012396F90020AEE5B8F113
S31580021B60730F32D106F1040A3668B6B1049BC3B14B
S31580021B703C4615F0010505D1019B20220CA9584649
S31580021B801B1BC847049B013ED3B116F9012F0AB12C
S31580021B90002C0BDC3C1B002DD4D10A9B01330A930B
S31580021BA062E53046FDF7C2FB0446E2E701230CA953
S31580021BB05846013CC847E8E701230CA95846C8475E
S31580021BC016F9012F002AF7D1E5E7012342460CA92F
S31580021BD05846C847B246E0E72E297FF493AD0023E4
S31580021BE00A201F460493134612F9011FA1F1300EF3
S31580021BF0BEF1090F3FF681AD00FB0717303F012387
S31580021C000493F0E72DE9F843002506460C469046F4
S31580021C101F46A946BD4201DBBDE8F88321684B1CFD
S31580021C207F2B04D93046FFF7B3FCC4F800902368B3
S31580021C30013506F80380216801312160EAE7000058
S31580021C4010B50C4611462AB9054B6921054A064844
S31580021C5000F058F82246BDE81040FFF77FBC00BF6F
S31580021C6044050680F20506806D0506800FB430B500
S31580021C70A3B08022002126AC02A854F8045B3BF074
S31580021C80C1FE084B02AA214628460194FFF7E2FCD0
S31580021C90014602A8FFF77CFC23B0BDE8304004B0C1
S31580021CA0704700BF051C028007B502AB012143F8CD
S31580021CB0040D1846FFF76CFC03B05DF804FB07B50C
S31580021CC00DF10700FFF7ACFC9DF8070003B05DF845
S31580021CD004FB10B503461446084639B1013B012B75
S31580021CE004D81146FFF754FC204610BD4FF0FF344E
S31580021CF0FAE70B4618B911461846FFF75DBC4FF056
S31580021D00FF3070471C460B4607B5214600920246B5
S31580021D100248FFF7ABFF00BEFDE700BF0206068062
S31580021D201F2908B505D9094B6A21094A0948FFF7CF
S31580021D30E9FF01232AB902688B4022EA0303036082
S31580021D4008BD02688B401343F9E700BF630606802D
S31580021D50090706806C06068010B50124C3690F291F
S31580021D6002F1FF3204FA01F488BF103923EA040330
S31580021D70C36194BF00F10C0300F11003042A2AD830
S31580021D80DFE802F0030C171F2600490003201A68B9
S31580021D9000FA01F122EA0101196010BD490003200F
S31580021DA01A68884022EA0002012000FA01F11143F2
S31580021DB0F2E7490003201A68884022EA00020220DC
S31580021DC0F3E749000322186802FA01F10143E3E7C7
S31580021DD0C3691C43C46110BDF8B5174604460E4656
S31580021DE000231F4A52F823108C422AD00133062B35
S31580021DF0F8D11C4B4A211C4A1C482FE01C4803235D
S31580021E0050F8215093402B430125B54040F82130AC
S31580021E106269EB431A4062613A784AB96268134052
S31580021E206360BA7831462046BDE8F840FFF794BF32
S31580021E307A7831462046FFF773FF63681D436560F3
S31580021E40EFE70C4A32F91330190A03F01F0206290A
S31580021E50D4D9094B4FF45671084A0948FFF752FF05
S31580021E601807068040060680F80606806C060680FD
S31580021E7068C00F403007068056FD0580E60606805C
S31580021E8061FD0580D0F8E03013F0020304D0D0F86B
S31580021E90E00000F0010070471846704708B5054B10
S31580021EA0984205D0044B8321044A0548FFF72AFF4E
S31580021EB0002008BD00802A40420706800A08068064
S31580021EC06B07068008B540F60A0302460B4023D00C
S31580021ED0080509D4080719D489071AD40F4BD521C6
S31580021EE00F4A1048FFF70EFF41F6593051690B43EE
S31580021EF05361D2F8BC3043F00103C2F8BC30D2F849
S31580021F00B83043F00103C2F8B83008BD41F65A3002
S31580021F10ECE741F65B30E9E7184608BD3C070680E8
S31580021F201E0806806B07068038B505460C46FFF705
S31580021F30B5FF464A136843F4406313602B6823F067
S31580021F4002032B602B6843F001032B602A6812F090
S31580021F500102FBD1A37B217CDB0143EA0163E17BA6
S31580021F6043F0020343EAC1132178090101F03001EB
S31580021F700B43E178090301F480510B43A17A43EACA
S31580021F8001436178890301F480410B432179C902B7
S31580021F9001F400610B43A178490301F400510B431C
S31580021FA021892B60638A43EA01436B60A379217D91
S31580021FB0DB0343EA01636179C90401F400210B431F
S31580021FC094F82610C90201F400610B4394F8281094
S31580021FD0AB60090194F8273001F010015B0103F030
S31580021FE020030B4394F82910C90001F008010B4322
S31580021FF02146EB608B7D0431C87C1B06000403F00E
S31580022000407300F470200343888AC0F3C7000343F9
S3158002201002F10800013245F82030032AEAD1237BF7
S31580022020D5F8B820DB08013B9B0003F03C03134341
S31580022030C5F8B830E37AD5F8BC20DB08013B9B00B3
S3158002204003F03C031343C5F8BC3038BD80C00F4053
S3158002205038B50123082200250446C3704FF6FF7364
S31580022060C27229460381163000F80C3C00F80A2C0D
S31580022070FF2220F8043C202300F8062C102200F8C8
S31580022080165C00F8155C00F8145C00F8125C00F827
S31580022090115C00F8105C00F8085C00F8075C00F838
S315800220A0023C3BF0AFFC84F8265084F8275084F833
S315800220B0285084F8295038BDF8B50446550820467C
S315800220C0FFF7E0FE0028FAD0002304EB850004EB3C
S315800220D08202CE8903668B68B1F81AE013664B7C5E
S315800220E03E4F03F01F0307EA0E4743EA06430E7B81
S315800220F0F603B6B233430E7C760106F47876334322
S31580022100CE7CF60206F4F04633430E7DB60206F422
S3158002211080663343324E1367D2F880301E404B7E40
S315800221201B0703F0E0433B4333438E7D46B14F7D2D
S31580022130013E3F02760307F47067B6B23E433343ED
S315800221400E7E3EB1013ECF7D760107F00F07F6B2D5
S315800221503E433343C2F880302368C3F30113032B13
S315800221602CD10B7953BB0A681E4B9A4229D88B7C99
S315800221704FF47A764B225E43B6FBF2F35A4396428B
S3158002218088BF01335B0203F4FC4343F48073C0F8D7
S31580022190C0300B7FD4F89420ADB922F004029B00A4
S315800221A0C4F8942003F00403D4F894201343C4F8AB
S315800221B09430236823F002032360F8BD4FF48073C2
S315800221C0E5E77923E3E722F00802DB00C4F89420EE
S315800221D003F00803D4F89420E8E700BF0000FF0F5D
S315800221E01F100080FFE0F5053F29F8B504461F461B
S315800221F006D9124B4FF4BD71114A1248FFF782FD80
S315800222002046FFF73FFE0028FAD00F4B01F18006E9
S315800222100020C9B2A36102239E40E3610D1806EB3A
S315800222208003EDB2BD4204D3074BA3610123E36170
S31580022230F8BD52F820500130E550EFE7E8070680F6
S31580022240390806806B070680F05AF05AD0F8BC30FF
S31580022250C3F3830301332DE9F04106460F46144644
S315800222604FEAC3085D0014B92046BDE8F081716962
S315800222704B06FCD53046FFF725FE0028F5D14445AE
S315800222800ED2A408013457F8202000F160030130F1
S3158002229046F823208442F6D807EB840700240BE015
S315800222A057F8202000F16003013046F82320A84227
S315800222B0F6D14744A4EB0804736943F04003736183
S315800222C0D1E7D0F8B830C3F3830301332DE9F04167
S315800222D0054688461446DF005E000CB920460DE0AE
S315800222E0BC4212D2D5F8F030DBB2B4EBC30F0FD9B1
S315800222F069692846FFF7E6FD0028F3D0BDE8F0813C
S315800223002846FFF7DFFD0028F8D169698B06F7D5E5
S3158002231069692846FFF7D6FD08B1BDE8F081BC425F
S315800223200ED2A408013400F1400355F8233048F850
S31580022330203001308442F6D808EB840800240AE073
S3158002234000F1400355F8233048F820300130B0427E
S31580022350F6D1B844E41B6B6943F020036B61BCE79A
S3158002236038B50B790D46044600EB8303D3F88020FB
S3158002237042F00042C3F88020436943F01E03436162
S315800223800B684979C0F8A030D0F8BC3043F001031D
S31580022390C0F8BC30D0F8B83043F00103C0F8B8308A
S315800223A04B1EAA79022BEB794FEA024203F1FF33E5
S315800223B098BFA88902F4702288BF00201B0603F00A
S315800223C0E06313430343C4F8A430D4F8B03043F037
S315800223D00103C4F8B03001F0FD03012B12D1EA6883
S315800223E02046A968FFF732FF02462046FFF74AFDDC
S315800223F00028FAD06B797BB961692046BDE83840FE
S31580022400FFF760BD022905D1EA682046A968FFF771
S3158002241058FFE9E70022E8E7104638BD08B531B92A
S31580022420074B40F2AF21074A0748FFF76BFC036967
S3158002243023F4066323F00B03036100230B6008BDBC
S3158002244042FF0580F40706806B0706802DE9F0417E
S3158002245046690C460546F6B23146FFF733FD074616
S3158002246080B1236973B121462846FFF7D7FF2669D3
S31580022470002E74D063693A4621462846B446BDE8A2
S31580022480F0416047B10620D52368022B1DD1D5F8CD
S31580022490B820A368C2F383020132D700BB4208D2B6
S315800224A09B0800220133501CD2B2934242D80023A9
S315800224B006E052000020C1B2013091422EDBDB1BC6
S315800224C0A3606B6943F020036B61F2070ED56B69DB
S315800224D02146284643F001036B61FFF79FFF276978
S315800224E027B16369002221462846B847730636D546
S315800224F02368012B33D1A3688BB3D5F8BC20C2F3F2
S3158002250083020132D600B3421DD29B0800220133D8
S31580022510501CD2B293422ED800231BE0D4F804E09A
S3158002252040310EF1040C55F82110C4F804C0CEF8DF
S315800225300010C0E7616840320F1D55F8222067609F
S315800225400A600246AFE752000020C1B201309142D2
S3158002255007DB9B1BA3606B6943F040036B61BDE89D
S31580022560F0816768603107F1040E3F68C4F804E0C1
S3158002257045F82170E9E7616860320E1D0968666078
S3158002258045F822100246C3E7024B03481968FFF753
S315800225905DBF00BF3409108000802A40436ADB0792
S315800225A04CBF024B024B1B68184700BF5409108070
S315800225B05809108008B5D8B10E4B984211D003F550
S315800225C0804398420FD003F5804398420DD003F59D
S315800225D0804398420BD0084BB221084A0848FFF73D
S315800225E091FB012008BD022008BD032008BD0420FE
S315800225F008BD00BF0040394011090680D90906800E
S315800226009608068010B50C46FFF7D4FF014B1C5482
S3158002261010BD00BF38091080036943F002030361CD
S31580022620036943F44073036100230361704700002A
S315800226302DE9F84F054633B9214B4FF4B571214A3E
S315800226402148FFF75FFB406A10F0010035D0286908
S3158002265010F0010030D14FF0FF364FF0FF094FF0F6
S3158002266007080446194F14F807A000274FEA4A0EB6
S31580022670B2FBFEFC614507D3A1EB0C0BB3453FBF12
S315800226805E466046B946A0460137B7F5807F0CD1D3
S315800226900134082C0DD12A6C22F0FF0242EA09028B
S315800226A02A64C3F80080BDE8F88FD644002EDFD1B5
S315800226B0EEE7002ED6D1EEE70020BDE8F88F00BF08
S315800226C0350906804609068096080680EB0906804B
S315800226D0022A08B50BD0032A10D0012A14D1036C22
S315800226E0090423F47F0301F47F01194304E0036C98
S315800226F023F07F4343EA0161016408BD036C09024A
S3158002270023F47F4389B2F0E7034B40F2C111034AB7
S315800227100348FFF7F7FA00BF3C0706805E0906808A
S3158002272096080680000000002DE9F04F9246026E60
S315800227308B463B49C2F3C262BAF1030F85B00746A4
S315800227408C5CB3FBF4F44FF00003224620D12EA119
S31580022750D1E90001FCF794FE002380468946224691
S315800227602BA1D1E90001FCF78BFE0123054600224D
S315800227705946914508BFD845CDE9001218D3384647
S3158002278052460021FFF7A4FF404605B0BDE8F08F10
S3158002279021A1D1E90001FCF773FE00238046894618
S315800227A0224620483B21FCF76BFE00230546DEE7E6
S315800227B001334FF0FF384FF0FF0900260393039B46
S315800227C02246194998190023A0FB0101FCF758FEFD
S315800227D0DDE90023994208BF904206D3A0EB0B03A2
S315800227E0984582BF9846B14605460136B6F5807F42
S315800227F006D1384652464946FFF76AFF2846C4E75D
S31580022800B8F1000FDBD1F4E70094357700000000C1
S3158002281000CA64D63B00000000CA9A3B0000000052
S31580022820EB0906800000CA9A00CA9A3B08B5074B94
S31580022830596831B9064B40F2DC61064A0648FFF711
S3158002284061FA0648BDE80840FFF7A8BE4009108035
S315800228504B08068079090680960806800040394032
S3158002286008B5074B996831B9064B40F2E461064ACE
S315800228700648FFF747FA0648BDE80840FFF78EBECE
S31580022880400910805C0806809109068096080680B9
S315800228900080394008B5074BD96831B9064B40F2FA
S315800228A0EC61064A0648FFF72DFA0648BDE808405D
S315800228B0FFF774BE400910806D080680A90906805C
S315800228C09608068000C0394008B5074B196931B9A8
S315800228D0064B40F2F461064A0648FFF713FA0648A9
S315800228E0BDE80840FFF75ABE400910807E08068080
S315800228F0C10906809608068000003A4008B5034A58
S315800229004021034B0348FFF7FDF900BF5D0B0680AC
S31580022910F3090680150A0680020A00F01F00062ABD
S3158002292038B506D9094B4FF45671094A0948FFF75B
S31580022930E9F9094D032455F82230844001FA00F062
S3158002294023EA0403034345F8223038BD56FD058049
S31580022950370B068061FD058068C00F4038B5044696
S315800229600D4649B100B3354B984265D003F5804395
S31580022970984217D1022318E0314B4721314A324817
S31580022980FFF7C0F922689B0122F4B86203F4E07370
S31580022990134346E0636823F47F6323F00F031343F4
S315800229A0636038BDFFF7AAFF0346284A032132F93E
S315800229B01300FFF7B1FF00232360236843F400432B
S315800229C0236023681B04FCD42B7A6A7A002B14BFFB
S315800229D04FF400730023002A14BF082200221343F7
S315800229E0AA7A002A14BF202200221343EA7A002AF6
S315800229F014BF102200221A432B7B002B14BF042300
S31580022A0000231A436B7B002B14BF0223002313433C
S31580022A1023602B78052BB5D1236823F4B86343F45E
S31580022A20A86323606A68013AB2F5805FB2D3084B25
S31580022A30F121084A0848A3E70123B6E700C01E40F1
S31580022A408E0A06806D0B0680150A06808C0B068020
S31580022A50990A0680490B0680BE0A068008B528B9FF
S31580022A60084B6821084A0948FFF74CF901230022DE
S31580022A700370436083724372C2720273027243733B
S31580022A8008BD00BF33FD0580760B0680150A0680D9
S31580022A90436903F1200203F500718361F0B51A6080
S31580022AA020321B688A42FAD10022056900F11C0491
S31580022AB000F13C071A6010234FF0010C4FF0400ED4
S31580022AC080F85C304368D3F8401121F47F01C3F863
S31580022AD04011D3F84011C3F84011D3F8A81141F040
S31580022AE00801C3F8A811D3F8A81121F00401C3F88C
S31580022AF0A8112946C1F808C0403151F8406C6EF3DE
S31580022B001A4641F8406C44F8042BA742E26111F858
S31580022B10086C62F3000601F8086CEBD140F24711AB
S31580022B20C3F85851C3F85421C3F8481180F85E207F
S31580022B30F0BD2DE9F04F85B00E461F46054601923F
S31580022B40002800F0DF8048002B6900F01E0040EA72
S31580022B50D11A4FEA8A18434493F83830D90740F19C
S31580022B60D38095F85E40002C40F0CE8007F57F53E7
S31580022B700DF10F003F335FEA933908BF4FF0010929
S31580022B8001F080F895F95C10894507D99DF80F0008
S31580022B9001F089F8022005B0BDE8F08FAA69A64641
S31580022BA0A14605EB8A00B7F5804F3B46D2F800C0B6
S31580022BB001F1FF3128BF4FF48043BEF1000F08BFF9
S31580022BC0934649B2009301231360019BC2F8049095
S31580022BD003EB0E0A009BC2F808A0D2F808A00AF5F9
S31580022BE0805A2AF47F6A2AF00F0AC2F80CA0D2F819
S31580022BF00CA00AF5805AC2F810A0D2F810A00AF5E5
S31580022C00805AC2F814A0D2F814A00AF5805AC2F8E3
S31580022C1018A0D2F804A063F31E4AC2F804A0009B4F
S31580022C20D2F81CA063F31E3A9368C2F81CA0B2F8CD
S31580022C301CA063F30B0AA2F81CA092F81FA069F3EA
S31580022C40C71A82F81FA0009BFF1A05D1D2F804A0EA
S31580022C504AF4004AC2F804A0D2F804A0802363F39F
S31580022C60070AC2F804A0009B9E44C36B2BB31A606A
S31580022C70C2636246002F96D185F85C10F10806F091
S31580022C800F06C5F818C001F010010E43012101FAA2
S31580022C9006F6B4B12B6998440023C8F808B0C8F880
S31580022CA00C306B68C3F8B061D3F8B82116420DD1E7
S31580022CB0D3F8BC211642F5D008E0C2610124C26372
S31580022CC0D7E76B68D3F8B021164205D09DF80F007E
S31580022CD000F0E9FF00205EE7D3F8402142F48052FB
S31580022CE0C3F84021D3F8B811D3F84021D204F3D5E2
S31580022CF0D3F8402122F48052C3F84021F3B20B422A
S31580022D00C8D0E3E7032046E7012044E72DE9F04FE8
S31580022D1002EB410985B041EAC211002500EB890622
S31580022D2007464FEA8919DFF8A8A0F4695FFA81F8A5
S31580022D304FF0FF3B019524F01F04029514B905B0AC
S31580022D40BDE8F08F019B3BB9A368A28B03EA0A0315
S31580022D50C2F30B021343019363681A062AD5CDF890
S31580022D6008B0F369F26B93422FD1F5610122F563C4
S31580022D703B694B449A60DD6063681B0403D4F36944
S31580022D8033F01F0309D101A938688DF80C808DF8BC
S31580022D900D5000F0EFFD019502956560BB692360D9
S31580022DA097F85C30BC61013387F85C30F46924F0B3
S31580022DB01F04C3E76268E369C2F30E42C3F31233A8
S31580022DC09B1A029A13440293CBE71B68F361D3E7FB
S31580022DD000F0FFFF30B5034687B0134C012B6D46DA
S31580022DE094E8070006AC8DE8070004E9070002D8DC
S31580022DF0002007B030BD023B0022DBB2114655F8F7
S31580022E00210028B106AC04EB8204013244F80C0C92
S31580022E1001310329F3D19A42EAD306AA02EB83034C
S31580022E2053F80C0CE5E700BFE4FB05800228F8B5F1
S31580022E3006460F4615462BD1174C184B84F85F0071
S31580022E406361174B2361174B636000F06DFCA060D2
S31580022E503046FFF7BFFF6368E060D3F8242102F0B3
S31580022E601F02032A84F85D2014D9D3F8A8212046AC
S31580022E70276022F00302C3F8A821D3F8A82142F0E2
S31580022E800202C3F8A821FFF703FE2C600020F8BDDA
S31580022E900620F8BD0120F8BD5C0910800012108062
S31580022EA00010108000002E4080B143680020C3F8D5
S31580022EB04801D3F8402122F00102C3F84021D3F819
S31580022EC0402142F00202C3F8402170470320704736
S31580022ED001F00F0141F08001FFF72BBE01F00F01D7
S31580022EE0FFF727BE2DE9F04F8A4685B006460028B1
S31580022EF000F08C804F000DF1030007F01E0747EAB1
S31580022F00D11700F0BFFE00233FB201934FF0FF338B
S31580022F1006EB87080293D8F81C4024F01F04254646
S31580022F20E5B94FEADA090AF00F02DFF8E4B009F0F0
S31580022F30100949EA02024FF0010909FA02F9ACB90D
S31580022F40336903EB87170123BB60FC609DF803009E
S31580022F5000F0A9FE002005B0BDE8F08FEA7F42F0BE
S31580022F608002EA772D6825F01F05D9E794F91F308C
S31580022F70002BEBDA63681A0632D4019B3BB9A3684D
S31580022F80A28B03EA0B03C2F30B0213430193D8F815
S31580022F901C30D8F83C20934234D1C8F81C50C8F86B
S31580022FA03C5063681B0404D4D8F81C3033F01F03EA
S31580022FB008D101A930688DF80CA08DF80D5000F06B
S31580022FC0D9FC01956560B369236096F85C30B4617B
S31580022FD0013386F85C30D8F81C4024F01F04AEE733
S31580022FE07368D3F8B42149EA0202C3F8B421D3F84C
S31580022FF0B42119EA020FFAD1D3F8B82119EA020FDD
S31580023000EFD1BAE71B68C8F81C30CAE70320A2E7EB
S3158002301000F0FFFF2DE9F041CC0801F00F06CD0943
S31580023020804604F0100445EA460744EA0603012472
S31580023030BF019C4003693B4493F838206FF300023A
S3158002304083F83820FFF74EFFD8F80430D3F8B02142
S31580023050144224D1D3F8B801204020D1D8F81020C8
S31580023060D0516EB9002DD3F8C011304614BF6FF41B
S315800230700C026FF08C020A40C3F8C021BDE8F081D1
S3158002308003EB8603002DD3F8C01114BF6FF40C0234
S315800230906FF08C020A40C3F8C021BDE8F08102209D
S315800230A0BDE8F0812DE9F84F15460446002800F068
S315800230B091810F2900F29481DFE811F010001A0045
S315800230C020009B00A300D90004010A01320192016B
S315800230D0920192013A019201750187014268D2F802
S315800230E0403143F00103C2F840310020BDE8F88F39
S315800230F04268D2F8403123F00103F4E7002A00F057
S315800231006F819778B2F800B04FEAD70907F00F08B7
S31580023110394692F803A009F0100949EA08034FF0EC
S31580023120010909FA03F9FFF7DDFE6668D6F8B031C0
S3158002313019EA030F40F05181D6F8B83119EA03092A
S3158002314040F04B810AF00303FF09CBF30A012069A1
S31580023150012B47EA480234D14FEA821EB1F5806FCD
S3158002316050F80EC028BF4FF4806163F39F7C40F80D
S315800231700EC09201206950F802E0841861F31A4E5B
S3158002318040F802E029798558B1FA81F1490961F35B
S315800231905D758550E3B98358002F43F4004383500D
S315800231A008BFC022D6F8C03118BF4FF4400213437D
S315800231B0C6F8C03194F8383043F0010384F83830C9
S315800231C093E74FEA821E50F80EC069F39F7CCEE7E2
S315800231D0815806EB88066FF3CF318150D6F8C0212D
S315800231E01FB19B0443F44003E1E79B0043F0C00315
S315800231F0DDE7002A00F0F4801178BDE8F84FFFF78A
S3158002320009BF002A00F0EC80117801F00F05CE0983
S31580023210FFF768FE236946EA4507BF01D859636806
S31580023220C0F3C03050B135B9D3F8C02142F0011293
S31580023230C3F8C02159E703EB8503F5E745B9002EAC
S31580023240D3F8C0210CBF01214FF480310A43EFE746
S31580023250002E03EB850308BF0121D3F8C02118BFD6
S315800232604FF480310A43C3F8C021BDE8F88F002AA3
S3158002327000F0B68010786368C10910F00F0009D19A
S315800232800029D3F8C0210CBF6FF001016FF48031A1
S315800232900A40E8E703EB80000029D0F8C0310CBF72
S315800232A06FF001026FF4803203EA02030CBF402200
S315800232B04FF48002C0F8C031D0F8C0311343C0F851
S315800232C0C03112E70120002A00F08B8010800CE7C3
S315800232D0002A00F08580137803F00F0003287FD838
S315800232E0DB09626870B16F30002B02EB80000CBF85
S315800232F001234FF480334268134214BF0123002313
S315800233006B80F2E6002BD2F8C0210CBF01234FF46A
S315800233108033134214BF012300236B80BDE8F88FEC
S31580023320002A5DD02B7842685B06C2F85431DCE60F
S3158002333043684FF0FF31D3F8A42142F4FE02C3F86A
S31580023340A42182681160106B10F0005029D1D3F845
S31580023350441141F08001C3F84411D3F8841141F439
S315800233600001C3F88411136BE16843F4600343F4EC
S3158002337000731363D1F8003843F0005343F44033AB
S31580023380C1F80038D1F8003843F48063C1F80038B8
S31580023390136B43F080431363012384F86130BDE8E5
S315800233A0F88F00BFCFE70025EEB22046013546F002
S315800233B08001FFF72FFE31462046FFF72BFE042DB4
S315800233C0F2D12046FFF764FB8FE64AB190F860306F
S315800233D013708AE60320BDE8F88F0220BDE8F88FD5
S315800233E00120BDE8F88F2DE9F04F87B0002800F064
S315800233F095800468E268D2F8003813F4806F6368B7
S315800234000FD0D2F8001800290BDAD3F8841121F4F0
S315800234100001C3F88411D2F8001821F48061C2F841
S315800234200018D3F84411D3F848210A400092C3F811
S315800234304421520618D5D3F8AC214FF0FF11C3F8B8
S31580023440AC21D3F8BC21C3F8BC21C3F8B411D3F89C
S31580023450B02112F0FF1FF8D1D3F8843113F48073B0
S315800234605FD0012384F85E30009BDF070ED5636848
S31580023470D3F8AC310193002B5FD16368D3F8BCB12A
S31580023480C3F8BCB1BBF1000F40F0A180009B580786
S3158002349030D500238DF81530039304936368D3F8EF
S315800234A08421D10514D4D3F8843113F4007318BF60
S315800234B0022384F8603094F85E304BB1102303A95E
S315800234C08DF81430206800F055FA002384F85E30B7
S315800234D094F8613073B16368D3F8843113F0800352
S315800234E008D184F86130122303A98DF8143020683C
S315800234F000F040FA009BDA0510D56368D3F8843170
S315800235001B060BD5002303A98DF81530039304936C
S3158002351011238DF81430206800F02CFA07B0BDE82C
S31580023520F08F10228DF8153003A903938DF814209D
S315800235302068049300F01EFA96E700254FF0010BEF
S315800235400BFA05F9019B5FFA85FA13EA090F3AD05D
S31580023550EF012669514620463E4416F8308F4FEADF
S31580023560D8184246FFF7D2FB88F001025146204620
S31580023570FFF7CCFB8DF814A08DF815B008232269CD
S315800235800493174463680396B86AF96AC3F8AC91E0
S31580023590D3F8402142F40052C3F84021D3F84021A7
S315800235A09604F5D5D3F84021386322F40052796324
S315800235B0C3F84021D3F8AC2119EA020FFAD103A944
S315800235C0206800F0D7F90135042DB9D155E74FF0BF
S315800235D0000A4FF001085FFA8AF308FA0AF212EA41
S315800235E00B0F05D10AF1010ABAF1200FF1D14DE78D
S315800235F0BAF10F0F8ABF103B4FF00008DBB2032BE4
S31580023600F0D808EB4309002643EAC8125FFA89F923
S31580023610039603EB08134FF0010804EB890704961F
S315800236204FEA891908FA03F8FD6925F01F05002D6E
S31580023630D8D0FD6925F01F052B465BB1596809066E
S3158002364002D45968080467D559680906CAD45B68E2
S315800236501B04C7D5002DC5D069680806E7D403992F
S3158002366049B9A968A88B21F47F61C0F30B0021F0C8
S315800236700F01014303916868E969C0F30E40C1F303
S315800236801231091A04980144F86B0491F96981424E
S3158002369046D1FE610123FE63216949448B60CE6077
S315800236A06968090403D4F96931F01F030BD18DF8D7
S315800236B0142003A98DF815602068019200F05AF94A
S315800236C0019A039604966E60A169296094F85C104B
S315800236D0A561013184F85C10FD6935F01F0581D042
S315800236E069680B06B6D56168C1F8B081D1F8B801B0
S315800236F018EA000FAED1D1F8B00118EA000FFAD15C
S31580023700D1F8B83118EA0303A4D120694844856008
S31580023710C360C1F8B0819DE71B6823F01F038CE765
S315800237200968F961BCE7000030B5034687B0134CDF
S31580023730012B6D4694E8070006AC8DE8070004E984
S31580023740070002D8002007B030BD023B0022DBB260
S31580023750114655F8210028B106AC04EB82040132E9
S3158002376044F80C0C01310329F3D19A42EAD306AA12
S3158002377002EB830353F80C0CE5E700BFF0FB0580F0
S3158002378038B504461546FFF7CFFF50B3023C602397
S315800237904FF4C0120021634303F1804303F558239B
S315800237A0C3F8B421036B43F480430363036B43F48E
S315800237B00043036301606B78AA781B0404691202D2
S315800237C003F4702302F4706213432A7802F00F0224
S315800237D0134324F00F1222F47062134303610846E6
S315800237E038BD012038BD20B1436823B15B690068CA
S315800237F01847032070470620704737B505460024D0
S315800238000DF1070000F03EFA9DF807002C6085F85E
S31580023810714000F048FA204603B030BD2DE9F743E7
S315800238200F4690469946064698B343689BB34C002A
S315800238300C2504F01E0444EAD11405FB04052B7EF4
S315800238405BBB0DF1070000F01DFA01239DF807000E
S315800238502B7600F028FA736817F0800F42463946B5
S31580023860306814BF9D68DD684B46A847054660B13F
S315800238700DF1070000F006FA0C239DF8070003FB02
S3158002388004640023237600F00EFA284603B0BDE8CE
S31580023890F0830325F9E70625F7E70225F5E730B534
S315800238A00A7A85B00446112A36D0122A39D0102ACD
S315800238B03BD1012580F8735001A800F0E3F984F822
S315800238C074509DF80400002500F0EDF900220E21C7
S315800238D02046FFF788FF01A800F0D4F984F87450D7
S315800238E09DF8040000F0DFF9022304F1600284F8F7
S315800238F0705084F8723023461D610C339D601D73AF
S315800239009A42F9D1E3680022012120469847002095
S3158002391084F8735005B030BDC368002202219847EF
S31580023920F8E7C36800220321F9E702F00F03032BAD
S315800239301ED85B0043EAD2130C2202FB03021069F3
S31580023940B0B1086801904868497A02908DF80C10E7
S3158002395061B10022227684F824200C2201A9204615
S3158002396002FB03431D695A69A847D3E71176F4E738
S315800239700120CFE710B503460A46C9B1C0B1C46873
S31580023980C4B190F8744054B10C7A14F00F0F06D07B
S3158002399014F0700F03D1BDE81040FFF780BF1146C7
S315800239A0986800F0CDF9002814BF0220002010BDCF
S315800239B0032010BD012010BD00221146FFF713BF60
S315800239C010B5044688B1436823B15B68006898479E
S315800239D000236360A06818B100F0AAF90023A360EF
S315800239E02046FFF70AFF002010BD032010BD00000D
S315800239F02DE9F341064688461746002A50D00DF136
S31580023A00070000F03FF92A4B9DF807001D681C4607
S31580023A103DB193F87130B34228D100F044F90125C3
S31580023A2027E083F8716000F03EF9234604F16002D4
S31580023A30C4F80C8084F8716084F8705084F87350EE
S31580023A401D610C339D601D739342F9D1B31E012B08
S31580023A5028D8184B032208211748636000F057F9CB
S31580023A60804650B11248FFF7ABFFD8E7022500F037
S31580023A701AF9284602B0BDE8F0813C603046636898
S31580023A800B4A1B6811469847054628B10848FFF736
S31580023A9097FFC7F80080ECE7022384F87230E8E7E4
S31580023AA00325E6E702480625FFF7A7FEE1E700BF02
S31580023AB000141080940B06800814108001F00F0108
S31580023AC041F08001FFF7AABE01F00F01FFF7A6BE03
S31580023AD070B4B8B1C9B1C2B18D7805F00F04032CA8
S31580023AE013D863001468526843EAD5130C2505FB84
S31580023AF003035A6100221C611A760A46022170BCAF
S31580023B00FFF771BE032070BC70470420FBE72DE9E6
S31580023B10FF4105468DF8071078B30DF10F005FFA65
S31580023B2081F800F0AFF801239DF80F00002685F892
S31580023B30743008F00F0400F0B6F80DF10702032185
S31580023B402846FFF750FE07460DF10F0000F09AF85F
S31580023B5085F874609DF80F0000F0A5F8032C0ED846
S31580023B6060000C2340EAD81003FB005006614661D0
S31580023B700676384604B0BDE8F0810327F9E70427C4
S31580023B80F7E707B58DF8071001F00F01032907D86B
S31580023B900DF107020421FFF726FE03B05DF804FB50
S31580023BA00420FAE707B58DF8071001F00F01032903
S31580023BB007D80DF107020521FFF715FE03B05DF860
S31580023BC004FB0420FAE7DAB1023906291AD8DFE8BB
S31580023BD001F004071113090E15000F21FFF703BE2A
S31580023BE01021FBE790F8723013700020704790F82E
S31580023BF07030F9E70621F1E70721EFE70921EDE7C2
S31580023C00042070470120704703390B2926D8DFE844
S31580023C1001F0062525090F252521231D251F1121A2
S31580023C20FFF7E1BDD2B1137880F872300020704779
S31580023C3090F87230032B05D082B1137880F87030F9
S31580023C400323F1E700F170020821E9E70A21E7E799
S31580023C500B21E5E70C21E3E70D21E1E7012070471F
S31580023C6010B5044658B100220549806800F090F8E4
S31580023C7028B920460249BDE81040FFF710BE10BDA4
S31580023C8078141080EFF305835BB1EFF311834FF065
S31580023C90100282F31188BFF36F8FBFF34F8F0370C9
S31580023CA070471AF05FBFEFF3058313B180F3118873
S31580023CB070471AF067BF10B5044638B1042019F070
S31580023CC0ABFD2060B0FA80F0400910BD012010BD26
S31580023CD008B518B119F0E3FE002008BD012008BD21
S31580023CE008B540B14FF0FF3119F0B8FE00280CBF7D
S31580023CF00220002008BD012008BD08B528B119F0B0
S31580023D009DFDB0FA80F0400908BD012008BD10B5BE
S31580023D100B460446114648B100228900184619F01E
S31580023D20E9FC2060B0FA80F0400910BD012010BD88
S31580023D3008B518B119F0B3FE002008BD012008BDF0
S31580023D4013B50024019410B9012002B010BDEFF31F
S31580023D50058393B1234601AA19F084FD0128F3D184
S31580023D6001980028F1D04FF08052084B1A60BFF3B9
S31580023D704F8FBFF36F8F2046E7E71A4619F0D2FCC2
S31580023D8010F1FF3018BF0120DFE700BF04ED00E02D
S31580023D9008B580B162B14FF47A735A43B2FBF3F23B
S31580023DA0002319F0C1FD012814BF0220002008BD9E
S31580023DB04FF0FF32F4E7012008BD00002DE9F743FA
S31580023DC0C6690C4611B91C4800F078F923896289C4
S31580023DD09A4217D16568278906F1040840F6A479C4
S31580023DE04FF0FF343B462A4641463068FCF7BEF91F
S31580023DF048451ED1009400230122F16AB06A1AF066
S31580023E00A7FDEFE740F2ED5293420DD825460B4FC0
S31580023E106A893846696839F0D0FD6B892D681F44F6
S31580023E20002DF5D1054DD6E76FF0010003B0BDE850
S31580023E30F0830020FAE700BFE00B06800045108081
S31580023E40F0B5061DADF2FC5D054601A93046FCF7CC
S31580023E50D7F840F6A273984233D0019C5CB3A1B2E4
S31580023E600322042003F084FC044638B3036833B982
S31580023E704389426831462868FCF70CF917E00389C2
S31580023E80314628680026254640F2EE5702AAFCF7FC
S31580023E9001F96A899319BB4209D802AB68689919F4
S31580023EA039F08BFD6B892D681E44002DF1D1204699
S31580023EB00DF2FC5DF0BDB0F57A6FF8D1234622464D
S31580023EC0D8E70024F3E7000038B5044610B909485C
S31580023ED000F0F4F8E069FFF7B3FF054600B938BD94
S31580023EE02369214698470028F4D0284603F0ECFB44
S31580023EF0F0E700BFD226068007B522B1012A06D096
S31580023F0003B05DF804FB1846FFF7DEFFF8E7D869D1
S31580023F1000230193EFF305838BB101ABC26A816AF9
S31580023F2009481AF0F3FC019B012BE9D14FF080522C
S31580023F30064B1A60BFF34F8FBFF36F8FE0E7C16AFC
S31580023F40806A1AF05DFDDBE759EA038004ED00E042
S31580023F502DE9F0434D4B93B04D4C0646C56923631C
S31580023F60403363634B4BA3634B4BE36315B94B48B7
S31580023F7000F0A4F86523062206F12908691D86F851
S31580023F8030306E2386F82820404686F8313040F657
S31580023F90FF77434BF4617361424BB361424B2360BB
S31580023FA039F00BFD40F2DC53F38496F82F3043F060
S31580023FB00A0386F82F30002328798DF809300523E5
S31580023FC0ADF80C300323ADF80E304FF4C063049382
S31580023FD00593236B0693636B0793A36B0893E36B3B
S31580023FE00993FCF7F7FD81460AA8FBF77BFD296852
S31580023FF04A46206833F0C4FB9DF80930D3B90DF1E7
S3158002400009022968206833F05FFC9DF809307BB18C
S315800240100DF10B030DF10A022968206833F0A4FC26
S315800240209DF80A308DF833309DF80B308DF8343098
S31580024030013FE1D11AF07EFC01232268E3620B9BE9
S31580024040A06243F060630B93174B9A421AD1174BC7
S31580024050602283F8722383F8722303AB0AAA20684C
S3158002406013498DE80003FBF7ADFD3246114910482E
S31580024070FBF756FD23684FF0807200201A6113B059
S31580024080BDE8F0830C4800F019F8E6E78005108059
S31580024090841410800015108000331080AC0B0680CB
S315800240A0E9C50280BD3D028000802D4000E100E02E
S315800240B088141080F93E0280C50B068008B5FDF78C
S315800240C0D5FD0348FDF7D2FD1AF04CFDFEE700BF91
S315800240D0FB0B0680054B43F239020549186801FB42
S315800240E000201860C0F30E40704700BFF04A10806F
